{
  "_format": "hh-sol-artifact-1",
  "contractName": "SpeckERC1155",
  "sourceName": "contracts/SpeckERC1155.sol",
  "abi": [
    {
      "inputs": [
        {
          "internalType": "address",
          "name": "_initialOwner",
          "type": "address"
        },
        {
          "internalType": "string",
          "name": "_name",
          "type": "string"
        },
        {
          "internalType": "string",
          "name": "_uri",
          "type": "string"
        },
        {
          "internalType": "uint256",
          "name": "_expiresAt",
          "type": "uint256"
        }
      ],
      "stateMutability": "nonpayable",
      "type": "constructor"
    },
    {
      "inputs": [
        {
          "internalType": "address",
          "name": "sender",
          "type": "address"
        },
        {
          "internalType": "uint256",
          "name": "balance",
          "type": "uint256"
        },
        {
          "internalType": "uint256",
          "name": "needed",
          "type": "uint256"
        },
        {
          "internalType": "uint256",
          "name": "tokenId",
          "type": "uint256"
        }
      ],
      "name": "ERC1155InsufficientBalance",
      "type": "error"
    },
    {
      "inputs": [
        {
          "internalType": "address",
          "name": "approver",
          "type": "address"
        }
      ],
      "name": "ERC1155InvalidApprover",
      "type": "error"
    },
    {
      "inputs": [
        {
          "internalType": "uint256",
          "name": "idsLength",
          "type": "uint256"
        },
        {
          "internalType": "uint256",
          "name": "valuesLength",
          "type": "uint256"
        }
      ],
      "name": "ERC1155InvalidArrayLength",
      "type": "error"
    },
    {
      "inputs": [
        {
          "internalType": "address",
          "name": "operator",
          "type": "address"
        }
      ],
      "name": "ERC1155InvalidOperator",
      "type": "error"
    },
    {
      "inputs": [
        {
          "internalType": "address",
          "name": "receiver",
          "type": "address"
        }
      ],
      "name": "ERC1155InvalidReceiver",
      "type": "error"
    },
    {
      "inputs": [
        {
          "internalType": "address",
          "name": "sender",
          "type": "address"
        }
      ],
      "name": "ERC1155InvalidSender",
      "type": "error"
    },
    {
      "inputs": [
        {
          "internalType": "address",
          "name": "operator",
          "type": "address"
        },
        {
          "internalType": "address",
          "name": "owner",
          "type": "address"
        }
      ],
      "name": "ERC1155MissingApprovalForAll",
      "type": "error"
    },
    {
      "inputs": [],
      "name": "EnforcedPause",
      "type": "error"
    },
    {
      "inputs": [],
      "name": "ExpectedPause",
      "type": "error"
    },
    {
      "inputs": [
        {
          "internalType": "address",
          "name": "owner",
          "type": "address"
        }
      ],
      "name": "OwnableInvalidOwner",
      "type": "error"
    },
    {
      "inputs": [
        {
          "internalType": "address",
          "name": "account",
          "type": "address"
        }
      ],
      "name": "OwnableUnauthorizedAccount",
      "type": "error"
    },
    {
      "anonymous": false,
      "inputs": [
        {
          "indexed": true,
          "internalType": "address",
          "name": "account",
          "type": "address"
        },
        {
          "indexed": true,
          "internalType": "address",
          "name": "operator",
          "type": "address"
        },
        {
          "indexed": false,
          "internalType": "bool",
          "name": "approved",
          "type": "bool"
        }
      ],
      "name": "ApprovalForAll",
      "type": "event"
    },
    {
      "anonymous": false,
      "inputs": [
        {
          "indexed": true,
          "internalType": "address",
          "name": "previousOwner",
          "type": "address"
        },
        {
          "indexed": true,
          "internalType": "address",
          "name": "newOwner",
          "type": "address"
        }
      ],
      "name": "OwnershipTransferred",
      "type": "event"
    },
    {
      "anonymous": false,
      "inputs": [
        {
          "indexed": false,
          "internalType": "address",
          "name": "account",
          "type": "address"
        }
      ],
      "name": "Paused",
      "type": "event"
    },
    {
      "anonymous": false,
      "inputs": [
        {
          "indexed": true,
          "internalType": "address",
          "name": "operator",
          "type": "address"
        },
        {
          "indexed": true,
          "internalType": "address",
          "name": "from",
          "type": "address"
        },
        {
          "indexed": true,
          "internalType": "address",
          "name": "to",
          "type": "address"
        },
        {
          "indexed": false,
          "internalType": "uint256[]",
          "name": "ids",
          "type": "uint256[]"
        },
        {
          "indexed": false,
          "internalType": "uint256[]",
          "name": "values",
          "type": "uint256[]"
        }
      ],
      "name": "TransferBatch",
      "type": "event"
    },
    {
      "anonymous": false,
      "inputs": [
        {
          "indexed": true,
          "internalType": "address",
          "name": "operator",
          "type": "address"
        },
        {
          "indexed": true,
          "internalType": "address",
          "name": "from",
          "type": "address"
        },
        {
          "indexed": true,
          "internalType": "address",
          "name": "to",
          "type": "address"
        },
        {
          "indexed": false,
          "internalType": "uint256",
          "name": "id",
          "type": "uint256"
        },
        {
          "indexed": false,
          "internalType": "uint256",
          "name": "value",
          "type": "uint256"
        }
      ],
      "name": "TransferSingle",
      "type": "event"
    },
    {
      "anonymous": false,
      "inputs": [
        {
          "indexed": false,
          "internalType": "string",
          "name": "value",
          "type": "string"
        },
        {
          "indexed": true,
          "internalType": "uint256",
          "name": "id",
          "type": "uint256"
        }
      ],
      "name": "URI",
      "type": "event"
    },
    {
      "anonymous": false,
      "inputs": [
        {
          "indexed": false,
          "internalType": "address",
          "name": "account",
          "type": "address"
        }
      ],
      "name": "Unpaused",
      "type": "event"
    },
    {
      "inputs": [
        {
          "internalType": "address",
          "name": "account",
          "type": "address"
        },
        {
          "internalType": "uint256",
          "name": "id",
          "type": "uint256"
        }
      ],
      "name": "balanceOf",
      "outputs": [
        {
          "internalType": "uint256",
          "name": "",
          "type": "uint256"
        }
      ],
      "stateMutability": "view",
      "type": "function"
    },
    {
      "inputs": [
        {
          "internalType": "address[]",
          "name": "accounts",
          "type": "address[]"
        },
        {
          "internalType": "uint256[]",
          "name": "ids",
          "type": "uint256[]"
        }
      ],
      "name": "balanceOfBatch",
      "outputs": [
        {
          "internalType": "uint256[]",
          "name": "",
          "type": "uint256[]"
        }
      ],
      "stateMutability": "view",
      "type": "function"
    },
    {
      "inputs": [
        {
          "internalType": "address",
          "name": "account",
          "type": "address"
        },
        {
          "internalType": "uint256",
          "name": "id",
          "type": "uint256"
        },
        {
          "internalType": "uint256",
          "name": "value",
          "type": "uint256"
        }
      ],
      "name": "burn",
      "outputs": [],
      "stateMutability": "nonpayable",
      "type": "function"
    },
    {
      "inputs": [
        {
          "internalType": "address",
          "name": "account",
          "type": "address"
        },
        {
          "internalType": "uint256[]",
          "name": "ids",
          "type": "uint256[]"
        },
        {
          "internalType": "uint256[]",
          "name": "values",
          "type": "uint256[]"
        }
      ],
      "name": "burnBatch",
      "outputs": [],
      "stateMutability": "nonpayable",
      "type": "function"
    },
    {
      "inputs": [],
      "name": "expiresAt",
      "outputs": [
        {
          "internalType": "uint256",
          "name": "",
          "type": "uint256"
        }
      ],
      "stateMutability": "view",
      "type": "function"
    },
    {
      "inputs": [
        {
          "internalType": "address",
          "name": "account",
          "type": "address"
        },
        {
          "internalType": "address",
          "name": "operator",
          "type": "address"
        }
      ],
      "name": "isApprovedForAll",
      "outputs": [
        {
          "internalType": "bool",
          "name": "",
          "type": "bool"
        }
      ],
      "stateMutability": "view",
      "type": "function"
    },
    {
      "inputs": [
        {
          "internalType": "address",
          "name": "account",
          "type": "address"
        },
        {
          "internalType": "uint256",
          "name": "id",
          "type": "uint256"
        },
        {
          "internalType": "uint256",
          "name": "amount",
          "type": "uint256"
        },
        {
          "internalType": "bytes",
          "name": "data",
          "type": "bytes"
        }
      ],
      "name": "mint",
      "outputs": [],
      "stateMutability": "nonpayable",
      "type": "function"
    },
    {
      "inputs": [
        {
          "internalType": "address",
          "name": "to",
          "type": "address"
        },
        {
          "internalType": "uint256[]",
          "name": "ids",
          "type": "uint256[]"
        },
        {
          "internalType": "uint256[]",
          "name": "amounts",
          "type": "uint256[]"
        },
        {
          "internalType": "bytes",
          "name": "data",
          "type": "bytes"
        }
      ],
      "name": "mintBatch",
      "outputs": [],
      "stateMutability": "nonpayable",
      "type": "function"
    },
    {
      "inputs": [],
      "name": "name",
      "outputs": [
        {
          "internalType": "string",
          "name": "",
          "type": "string"
        }
      ],
      "stateMutability": "view",
      "type": "function"
    },
    {
      "inputs": [],
      "name": "owner",
      "outputs": [
        {
          "internalType": "address",
          "name": "",
          "type": "address"
        }
      ],
      "stateMutability": "view",
      "type": "function"
    },
    {
      "inputs": [],
      "name": "pause",
      "outputs": [],
      "stateMutability": "nonpayable",
      "type": "function"
    },
    {
      "inputs": [],
      "name": "paused",
      "outputs": [
        {
          "internalType": "bool",
          "name": "",
          "type": "bool"
        }
      ],
      "stateMutability": "view",
      "type": "function"
    },
    {
      "inputs": [],
      "name": "renounceOwnership",
      "outputs": [],
      "stateMutability": "nonpayable",
      "type": "function"
    },
    {
      "inputs": [
        {
          "internalType": "address",
          "name": "from",
          "type": "address"
        },
        {
          "internalType": "address",
          "name": "to",
          "type": "address"
        },
        {
          "internalType": "uint256[]",
          "name": "ids",
          "type": "uint256[]"
        },
        {
          "internalType": "uint256[]",
          "name": "values",
          "type": "uint256[]"
        },
        {
          "internalType": "bytes",
          "name": "data",
          "type": "bytes"
        }
      ],
      "name": "safeBatchTransferFrom",
      "outputs": [],
      "stateMutability": "nonpayable",
      "type": "function"
    },
    {
      "inputs": [
        {
          "internalType": "address",
          "name": "from",
          "type": "address"
        },
        {
          "internalType": "address",
          "name": "to",
          "type": "address"
        },
        {
          "internalType": "uint256",
          "name": "id",
          "type": "uint256"
        },
        {
          "internalType": "uint256",
          "name": "value",
          "type": "uint256"
        },
        {
          "internalType": "bytes",
          "name": "data",
          "type": "bytes"
        }
      ],
      "name": "safeTransferFrom",
      "outputs": [],
      "stateMutability": "nonpayable",
      "type": "function"
    },
    {
      "inputs": [
        {
          "internalType": "address",
          "name": "operator",
          "type": "address"
        },
        {
          "internalType": "bool",
          "name": "approved",
          "type": "bool"
        }
      ],
      "name": "setApprovalForAll",
      "outputs": [],
      "stateMutability": "nonpayable",
      "type": "function"
    },
    {
      "inputs": [
        {
          "internalType": "bytes4",
          "name": "interfaceId",
          "type": "bytes4"
        }
      ],
      "name": "supportsInterface",
      "outputs": [
        {
          "internalType": "bool",
          "name": "",
          "type": "bool"
        }
      ],
      "stateMutability": "view",
      "type": "function"
    },
    {
      "inputs": [
        {
          "internalType": "address",
          "name": "newOwner",
          "type": "address"
        }
      ],
      "name": "transferOwnership",
      "outputs": [],
      "stateMutability": "nonpayable",
      "type": "function"
    },
    {
      "inputs": [],
      "name": "unpause",
      "outputs": [],
      "stateMutability": "nonpayable",
      "type": "function"
    },
    {
      "inputs": [
        {
          "internalType": "uint256",
          "name": "",
          "type": "uint256"
        }
      ],
      "name": "uri",
      "outputs": [
        {
          "internalType": "string",
          "name": "",
          "type": "string"
        }
      ],
      "stateMutability": "view",
      "type": "function"
    }
  ],
  "bytecode": "0x60a06040523480156200001157600080fd5b50604051620034dd380380620034dd83398181016040528101906200003791906200041d565b8184600073ffffffffffffffffffffffffffffffffffffffff168173ffffffffffffffffffffffffffffffffffffffff1603620000ae5760006040517f1e4fbdf7000000000000000000000000000000000000000000000000000000008152600401620000a59190620004de565b60405180910390fd5b620000bf816200011160201b60201c565b50620000d181620001d560201b60201c565b506000600460006101000a81548160ff021916908315150217905550806080818152505082600590816200010691906200073c565b505050505062000823565b60008060009054906101000a900473ffffffffffffffffffffffffffffffffffffffff169050816000806101000a81548173ffffffffffffffffffffffffffffffffffffffff021916908373ffffffffffffffffffffffffffffffffffffffff1602179055508173ffffffffffffffffffffffffffffffffffffffff168173ffffffffffffffffffffffffffffffffffffffff167f8be0079c531659141344cd1fd0a4f28419497f9722a3daafe3b4186f6b6457e060405160405180910390a35050565b8060039081620001e691906200073c565b5050565b6000604051905090565b600080fd5b600080fd5b600073ffffffffffffffffffffffffffffffffffffffff82169050919050565b60006200022b82620001fe565b9050919050565b6200023d816200021e565b81146200024957600080fd5b50565b6000815190506200025d8162000232565b92915050565b600080fd5b600080fd5b6000601f19601f8301169050919050565b7f4e487b7100000000000000000000000000000000000000000000000000000000600052604160045260246000fd5b620002b8826200026d565b810181811067ffffffffffffffff82111715620002da57620002d96200027e565b5b80604052505050565b6000620002ef620001ea565b9050620002fd8282620002ad565b919050565b600067ffffffffffffffff82111562000320576200031f6200027e565b5b6200032b826200026d565b9050602081019050919050565b60005b83811015620003585780820151818401526020810190506200033b565b60008484015250505050565b60006200037b620003758462000302565b620002e3565b9050828152602081018484840111156200039a576200039962000268565b5b620003a784828562000338565b509392505050565b600082601f830112620003c757620003c662000263565b5b8151620003d984826020860162000364565b91505092915050565b6000819050919050565b620003f781620003e2565b81146200040357600080fd5b50565b6000815190506200041781620003ec565b92915050565b600080600080608085870312156200043a5762000439620001f4565b5b60006200044a878288016200024c565b945050602085015167ffffffffffffffff8111156200046e576200046d620001f9565b5b6200047c87828801620003af565b935050604085015167ffffffffffffffff811115620004a0576200049f620001f9565b5b620004ae87828801620003af565b9250506060620004c18782880162000406565b91505092959194509250565b620004d8816200021e565b82525050565b6000602082019050620004f56000830184620004cd565b92915050565b600081519050919050565b7f4e487b7100000000000000000000000000000000000000000000000000000000600052602260045260246000fd5b600060028204905060018216806200054e57607f821691505b60208210810362000564576200056362000506565b5b50919050565b60008190508160005260206000209050919050565b60006020601f8301049050919050565b600082821b905092915050565b600060088302620005ce7fffffffffffffffffffffffffffffffffffffffffffffffffffffffffffffffff826200058f565b620005da86836200058f565b95508019841693508086168417925050509392505050565b6000819050919050565b60006200061d620006176200061184620003e2565b620005f2565b620003e2565b9050919050565b6000819050919050565b6200063983620005fc565b62000651620006488262000624565b8484546200059c565b825550505050565b600090565b6200066862000659565b620006758184846200062e565b505050565b5b818110156200069d57620006916000826200065e565b6001810190506200067b565b5050565b601f821115620006ec57620006b6816200056a565b620006c1846200057f565b81016020851015620006d1578190505b620006e9620006e0856200057f565b8301826200067a565b50505b505050565b600082821c905092915050565b60006200071160001984600802620006f1565b1980831691505092915050565b60006200072c8383620006fe565b9150826002028217905092915050565b6200074782620004fb565b67ffffffffffffffff8111156200076357620007626200027e565b5b6200076f825462000535565b6200077c828285620006a1565b600060209050601f831160018114620007b457600084156200079f578287015190505b620007ab85826200071e565b8655506200081b565b601f198416620007c4866200056a565b60005b82811015620007ee57848901518255600182019150602085019450602081019050620007c7565b868310156200080e57848901516200080a601f891682620006fe565b8355505b6001600288020188555050505b505050505050565b608051612c906200084d600039600081816105ff01528181610915015261099b0152612c906000f3fe608060405234801561001057600080fd5b506004361061012b5760003560e01c8063715018a6116100ad578063a22cb46511610071578063a22cb465146102f6578063e985e9c514610312578063f242432a14610342578063f2fde38b1461035e578063f5298aca1461037a5761012b565b8063715018a61461028a578063731133e9146102945780638456cb59146102b05780638622a689146102ba5780638da5cb5b146102d85761012b565b80632eb2c2d6116100f45780632eb2c2d6146101fa5780633f4ba83a146102165780634e1273f4146102205780635c975abb146102505780636b20c4541461026e5761012b565b8062fdd58e1461013057806301ffc9a71461016057806306fdde03146101905780630e89341c146101ae5780631f7fdffa146101de575b600080fd5b61014a60048036038101906101459190611e34565b610396565b6040516101579190611e83565b60405180910390f35b61017a60048036038101906101759190611ef6565b6103f1565b6040516101879190611f3e565b60405180910390f35b6101986104d3565b6040516101a59190611fe9565b60405180910390f35b6101c860048036038101906101c3919061200b565b610561565b6040516101d59190611fe9565b60405180910390f35b6101f860048036038101906101f39190612235565b6105f5565b005b610214600480360381019061020f91906122f0565b610671565b005b61021e610719565b005b61023a60048036038101906102359190612482565b61072b565b60405161024791906125b8565b60405180910390f35b610258610834565b6040516102659190611f3e565b60405180910390f35b610288600480360381019061028391906125da565b61084b565b005b6102926108f7565b005b6102ae60048036038101906102a99190612665565b61090b565b005b6102b8610987565b005b6102c2610999565b6040516102cf9190611e83565b60405180910390f35b6102e06109bd565b6040516102ed91906126f7565b60405180910390f35b610310600480360381019061030b919061273e565b6109e6565b005b61032c6004803603810190610327919061277e565b6109fc565b6040516103399190611f3e565b60405180910390f35b61035c600480360381019061035791906127be565b610a90565b005b61037860048036038101906103739190612855565b610b38565b005b610394600480360381019061038f9190612882565b610bbe565b005b60006001600083815260200190815260200160002060008473ffffffffffffffffffffffffffffffffffffffff1673ffffffffffffffffffffffffffffffffffffffff16815260200190815260200160002054905092915050565b60007fd9b67a26000000000000000000000000000000000000000000000000000000007bffffffffffffffffffffffffffffffffffffffffffffffffffffffff1916827bffffffffffffffffffffffffffffffffffffffffffffffffffffffff191614806104bc57507f0e89341c000000000000000000000000000000000000000000000000000000007bffffffffffffffffffffffffffffffffffffffffffffffffffffffff1916827bffffffffffffffffffffffffffffffffffffffffffffffffffffffff1916145b806104cc57506104cb82610c6a565b5b9050919050565b600580546104e090612904565b80601f016020809104026020016040519081016040528092919081815260200182805461050c90612904565b80156105595780601f1061052e57610100808354040283529160200191610559565b820191906000526020600020905b81548152906001019060200180831161053c57829003601f168201915b505050505081565b60606003805461057090612904565b80601f016020809104026020016040519081016040528092919081815260200182805461059c90612904565b80156105e95780601f106105be576101008083540402835291602001916105e9565b820191906000526020600020905b8154815290600101906020018083116105cc57829003601f168201915b50505050509050919050565b6105fd610cd4565b7f0000000000000000000000000000000000000000000000000000000000000000421061065f576040517f08c379a000000000000000000000000000000000000000000000000000000000815260040161065690612981565b60405180910390fd5b61066b84848484610d5b565b50505050565b600061067b610de1565b90508073ffffffffffffffffffffffffffffffffffffffff168673ffffffffffffffffffffffffffffffffffffffff16141580156106c057506106be86826109fc565b155b156107045780866040517fe237d9220000000000000000000000000000000000000000000000000000000081526004016106fb9291906129a1565b60405180910390fd5b6107118686868686610de9565b505050505050565b610721610cd4565b610729610ee1565b565b6060815183511461077757815183516040517f5b05999100000000000000000000000000000000000000000000000000000000815260040161076e9291906129ca565b60405180910390fd5b6000835167ffffffffffffffff8111156107945761079361203d565b5b6040519080825280602002602001820160405280156107c25781602001602082028036833780820191505090505b50905060005b8451811015610829576107ff6107e78287610f4490919063ffffffff16565b6107fa8387610f5890919063ffffffff16565b610396565b828281518110610812576108116129f3565b5b6020026020010181815250508060010190506107c8565b508091505092915050565b6000600460009054906101000a900460ff16905090565b610853610de1565b73ffffffffffffffffffffffffffffffffffffffff168373ffffffffffffffffffffffffffffffffffffffff161415801561089c575061089a83610895610de1565b6109fc565b155b156108e7576108a9610de1565b836040517fe237d9220000000000000000000000000000000000000000000000000000000081526004016108de9291906129a1565b60405180910390fd5b6108f2838383610f6c565b505050565b6108ff610cd4565b6109096000611000565b565b610913610cd4565b7f00000000000000000000000000000000000000000000000000000000000000004210610975576040517f08c379a000000000000000000000000000000000000000000000000000000000815260040161096c90612981565b60405180910390fd5b610981848484846110c4565b50505050565b61098f610cd4565b61099761115d565b565b7f000000000000000000000000000000000000000000000000000000000000000081565b60008060009054906101000a900473ffffffffffffffffffffffffffffffffffffffff16905090565b6109f86109f1610de1565b83836111c0565b5050565b6000600260008473ffffffffffffffffffffffffffffffffffffffff1673ffffffffffffffffffffffffffffffffffffffff16815260200190815260200160002060008373ffffffffffffffffffffffffffffffffffffffff1673ffffffffffffffffffffffffffffffffffffffff16815260200190815260200160002060009054906101000a900460ff16905092915050565b6000610a9a610de1565b90508073ffffffffffffffffffffffffffffffffffffffff168673ffffffffffffffffffffffffffffffffffffffff1614158015610adf5750610add86826109fc565b155b15610b235780866040517fe237d922000000000000000000000000000000000000000000000000000000008152600401610b1a9291906129a1565b60405180910390fd5b610b308686868686611330565b505050505050565b610b40610cd4565b600073ffffffffffffffffffffffffffffffffffffffff168173ffffffffffffffffffffffffffffffffffffffff1603610bb25760006040517f1e4fbdf7000000000000000000000000000000000000000000000000000000008152600401610ba991906126f7565b60405180910390fd5b610bbb81611000565b50565b610bc6610de1565b73ffffffffffffffffffffffffffffffffffffffff168373ffffffffffffffffffffffffffffffffffffffff1614158015610c0f5750610c0d83610c08610de1565b6109fc565b155b15610c5a57610c1c610de1565b836040517fe237d922000000000000000000000000000000000000000000000000000000008152600401610c519291906129a1565b60405180910390fd5b610c6583838361143b565b505050565b60007f01ffc9a7000000000000000000000000000000000000000000000000000000007bffffffffffffffffffffffffffffffffffffffffffffffffffffffff1916827bffffffffffffffffffffffffffffffffffffffffffffffffffffffff1916149050919050565b610cdc610de1565b73ffffffffffffffffffffffffffffffffffffffff16610cfa6109bd565b73ffffffffffffffffffffffffffffffffffffffff1614610d5957610d1d610de1565b6040517f118cdaa7000000000000000000000000000000000000000000000000000000008152600401610d5091906126f7565b60405180910390fd5b565b600073ffffffffffffffffffffffffffffffffffffffff168473ffffffffffffffffffffffffffffffffffffffff1603610dcd5760006040517f57f447ce000000000000000000000000000000000000000000000000000000008152600401610dc491906126f7565b60405180910390fd5b610ddb6000858585856114e2565b50505050565b600033905090565b600073ffffffffffffffffffffffffffffffffffffffff168473ffffffffffffffffffffffffffffffffffffffff1603610e5b5760006040517f57f447ce000000000000000000000000000000000000000000000000000000008152600401610e5291906126f7565b60405180910390fd5b600073ffffffffffffffffffffffffffffffffffffffff168573ffffffffffffffffffffffffffffffffffffffff1603610ecd5760006040517f01a83514000000000000000000000000000000000000000000000000000000008152600401610ec491906126f7565b60405180910390fd5b610eda85858585856114e2565b5050505050565b610ee9611594565b6000600460006101000a81548160ff0219169083151502179055507f5db9ee0a495bf2e6ff9c91a7834c1ba4fdd244a5e8aa4e537bd38aeae4b073aa610f2d610de1565b604051610f3a91906126f7565b60405180910390a1565b600060208202602084010151905092915050565b600060208202602084010151905092915050565b600073ffffffffffffffffffffffffffffffffffffffff168373ffffffffffffffffffffffffffffffffffffffff1603610fde5760006040517f01a83514000000000000000000000000000000000000000000000000000000008152600401610fd591906126f7565b60405180910390fd5b610ffb8360008484604051806020016040528060008152506114e2565b505050565b60008060009054906101000a900473ffffffffffffffffffffffffffffffffffffffff169050816000806101000a81548173ffffffffffffffffffffffffffffffffffffffff021916908373ffffffffffffffffffffffffffffffffffffffff1602179055508173ffffffffffffffffffffffffffffffffffffffff168173ffffffffffffffffffffffffffffffffffffffff167f8be0079c531659141344cd1fd0a4f28419497f9722a3daafe3b4186f6b6457e060405160405180910390a35050565b600073ffffffffffffffffffffffffffffffffffffffff168473ffffffffffffffffffffffffffffffffffffffff16036111365760006040517f57f447ce00000000000000000000000000000000000000000000000000000000815260040161112d91906126f7565b60405180910390fd5b60008061114385856115d4565b915091506111556000878484876114e2565b505050505050565b611165611604565b6001600460006101000a81548160ff0219169083151502179055507f62e78cea01bee320cd4e420270b5ea74000d11b0c9f74754ebdbfc544b05a2586111a9610de1565b6040516111b691906126f7565b60405180910390a1565b600073ffffffffffffffffffffffffffffffffffffffff168273ffffffffffffffffffffffffffffffffffffffff16036112325760006040517fced3e10000000000000000000000000000000000000000000000000000000000815260040161122991906126f7565b60405180910390fd5b80600260008573ffffffffffffffffffffffffffffffffffffffff1673ffffffffffffffffffffffffffffffffffffffff16815260200190815260200160002060008473ffffffffffffffffffffffffffffffffffffffff1673ffffffffffffffffffffffffffffffffffffffff16815260200190815260200160002060006101000a81548160ff0219169083151502179055508173ffffffffffffffffffffffffffffffffffffffff168373ffffffffffffffffffffffffffffffffffffffff167f17307eab39ab6107e8899845ad3d59bd9653f200f220920489ca2b5937696c31836040516113239190611f3e565b60405180910390a3505050565b600073ffffffffffffffffffffffffffffffffffffffff168473ffffffffffffffffffffffffffffffffffffffff16036113a25760006040517f57f447ce00000000000000000000000000000000000000000000000000000000815260040161139991906126f7565b60405180910390fd5b600073ffffffffffffffffffffffffffffffffffffffff168573ffffffffffffffffffffffffffffffffffffffff16036114145760006040517f01a8351400000000000000000000000000000000000000000000000000000000815260040161140b91906126f7565b60405180910390fd5b60008061142185856115d4565b9150915061143287878484876114e2565b50505050505050565b600073ffffffffffffffffffffffffffffffffffffffff168373ffffffffffffffffffffffffffffffffffffffff16036114ad5760006040517f01a835140000000000000000000000000000000000000000000000000000000081526004016114a491906126f7565b60405180910390fd5b6000806114ba84846115d4565b915091506114db8560008484604051806020016040528060008152506114e2565b5050505050565b6114ee85858585611645565b600073ffffffffffffffffffffffffffffffffffffffff168473ffffffffffffffffffffffffffffffffffffffff161461158d57600061152c610de1565b9050600184510361157c57600061154d600086610f5890919063ffffffff16565b90506000611565600086610f5890919063ffffffff16565b905061157583898985858961165f565b505061158b565b61158a818787878787611813565b5b505b5050505050565b61159c610834565b6115d2576040517f8dfc202b00000000000000000000000000000000000000000000000000000000815260040160405180910390fd5b565b60608060405191506001825283602083015260408201905060018152826020820152604081016040529250929050565b61160c610834565b15611643576040517fd93c066500000000000000000000000000000000000000000000000000000000815260040160405180910390fd5b565b61164d611604565b611659848484846119c7565b50505050565b60008473ffffffffffffffffffffffffffffffffffffffff163b111561180b578373ffffffffffffffffffffffffffffffffffffffff1663f23a6e6187878686866040518663ffffffff1660e01b81526004016116c0959493929190612a77565b6020604051808303816000875af19250505080156116fc57506040513d601f19601f820116820180604052508101906116f99190612ae6565b60015b611780573d806000811461172c576040519150601f19603f3d011682016040523d82523d6000602084013e611731565b606091505b50600081510361177857846040517f57f447ce00000000000000000000000000000000000000000000000000000000815260040161176f91906126f7565b60405180910390fd5b805181602001fd5b63f23a6e6160e01b7bffffffffffffffffffffffffffffffffffffffffffffffffffffffff1916817bffffffffffffffffffffffffffffffffffffffffffffffffffffffff19161461180957846040517f57f447ce00000000000000000000000000000000000000000000000000000000815260040161180091906126f7565b60405180910390fd5b505b505050505050565b60008473ffffffffffffffffffffffffffffffffffffffff163b11156119bf578373ffffffffffffffffffffffffffffffffffffffff1663bc197c8187878686866040518663ffffffff1660e01b8152600401611874959493929190612b13565b6020604051808303816000875af19250505080156118b057506040513d601f19601f820116820180604052508101906118ad9190612ae6565b60015b611934573d80600081146118e0576040519150601f19603f3d011682016040523d82523d6000602084013e6118e5565b606091505b50600081510361192c57846040517f57f447ce00000000000000000000000000000000000000000000000000000000815260040161192391906126f7565b60405180910390fd5b805181602001fd5b63bc197c8160e01b7bffffffffffffffffffffffffffffffffffffffffffffffffffffffff1916817bffffffffffffffffffffffffffffffffffffffffffffffffffffffff1916146119bd57846040517f57f447ce0000000000000000000000000000000000000000000000000000000081526004016119b491906126f7565b60405180910390fd5b505b505050505050565b6119cf611604565b6119db848484846119e1565b50505050565b8051825114611a2b57815181516040517f5b059991000000000000000000000000000000000000000000000000000000008152600401611a229291906129ca565b60405180910390fd5b6000611a35610de1565b905060005b8351811015611c47576000611a588286610f5890919063ffffffff16565b90506000611a6f8386610f5890919063ffffffff16565b9050600073ffffffffffffffffffffffffffffffffffffffff168873ffffffffffffffffffffffffffffffffffffffff1614611b9e5760006001600084815260200190815260200160002060008a73ffffffffffffffffffffffffffffffffffffffff1673ffffffffffffffffffffffffffffffffffffffff16815260200190815260200160002054905081811015611b4557888183856040517f03dee4c5000000000000000000000000000000000000000000000000000000008152600401611b3c9493929190612b7b565b60405180910390fd5b8181036001600085815260200190815260200160002060008b73ffffffffffffffffffffffffffffffffffffffff1673ffffffffffffffffffffffffffffffffffffffff16815260200190815260200160002081905550505b600073ffffffffffffffffffffffffffffffffffffffff168773ffffffffffffffffffffffffffffffffffffffff1614611c3a57806001600084815260200190815260200160002060008973ffffffffffffffffffffffffffffffffffffffff1673ffffffffffffffffffffffffffffffffffffffff1681526020019081526020016000206000828254611c329190612bef565b925050819055505b5050806001019050611a3a565b506001835103611d06576000611c67600085610f5890919063ffffffff16565b90506000611c7f600085610f5890919063ffffffff16565b90508573ffffffffffffffffffffffffffffffffffffffff168773ffffffffffffffffffffffffffffffffffffffff168473ffffffffffffffffffffffffffffffffffffffff167fc3d58168c5ae7397731d063d5bbf3d657854427343f4c083240f7aacaa2d0f628585604051611cf79291906129ca565b60405180910390a45050611d85565b8373ffffffffffffffffffffffffffffffffffffffff168573ffffffffffffffffffffffffffffffffffffffff168273ffffffffffffffffffffffffffffffffffffffff167f4a39dc06d4c0dbc64b70af90fd698a233a518aa5d07e595d983b8c0526c8f7fb8686604051611d7c929190612c23565b60405180910390a45b5050505050565b6000604051905090565b600080fd5b600080fd5b600073ffffffffffffffffffffffffffffffffffffffff82169050919050565b6000611dcb82611da0565b9050919050565b611ddb81611dc0565b8114611de657600080fd5b50565b600081359050611df881611dd2565b92915050565b6000819050919050565b611e1181611dfe565b8114611e1c57600080fd5b50565b600081359050611e2e81611e08565b92915050565b60008060408385031215611e4b57611e4a611d96565b5b6000611e5985828601611de9565b9250506020611e6a85828601611e1f565b9150509250929050565b611e7d81611dfe565b82525050565b6000602082019050611e986000830184611e74565b92915050565b60007fffffffff0000000000000000000000000000000000000000000000000000000082169050919050565b611ed381611e9e565b8114611ede57600080fd5b50565b600081359050611ef081611eca565b92915050565b600060208284031215611f0c57611f0b611d96565b5b6000611f1a84828501611ee1565b91505092915050565b60008115159050919050565b611f3881611f23565b82525050565b6000602082019050611f536000830184611f2f565b92915050565b600081519050919050565b600082825260208201905092915050565b60005b83811015611f93578082015181840152602081019050611f78565b60008484015250505050565b6000601f19601f8301169050919050565b6000611fbb82611f59565b611fc58185611f64565b9350611fd5818560208601611f75565b611fde81611f9f565b840191505092915050565b600060208201905081810360008301526120038184611fb0565b905092915050565b60006020828403121561202157612020611d96565b5b600061202f84828501611e1f565b91505092915050565b600080fd5b7f4e487b7100000000000000000000000000000000000000000000000000000000600052604160045260246000fd5b61207582611f9f565b810181811067ffffffffffffffff821117156120945761209361203d565b5b80604052505050565b60006120a7611d8c565b90506120b3828261206c565b919050565b600067ffffffffffffffff8211156120d3576120d261203d565b5b602082029050602081019050919050565b600080fd5b60006120fc6120f7846120b8565b61209d565b9050808382526020820190506020840283018581111561211f5761211e6120e4565b5b835b8181101561214857806121348882611e1f565b845260208401935050602081019050612121565b5050509392505050565b600082601f83011261216757612166612038565b5b81356121778482602086016120e9565b91505092915050565b600080fd5b600067ffffffffffffffff8211156121a05761219f61203d565b5b6121a982611f9f565b9050602081019050919050565b82818337600083830152505050565b60006121d86121d384612185565b61209d565b9050828152602081018484840111156121f4576121f3612180565b5b6121ff8482856121b6565b509392505050565b600082601f83011261221c5761221b612038565b5b813561222c8482602086016121c5565b91505092915050565b6000806000806080858703121561224f5761224e611d96565b5b600061225d87828801611de9565b945050602085013567ffffffffffffffff81111561227e5761227d611d9b565b5b61228a87828801612152565b935050604085013567ffffffffffffffff8111156122ab576122aa611d9b565b5b6122b787828801612152565b925050606085013567ffffffffffffffff8111156122d8576122d7611d9b565b5b6122e487828801612207565b91505092959194509250565b600080600080600060a0868803121561230c5761230b611d96565b5b600061231a88828901611de9565b955050602061232b88828901611de9565b945050604086013567ffffffffffffffff81111561234c5761234b611d9b565b5b61235888828901612152565b935050606086013567ffffffffffffffff81111561237957612378611d9b565b5b61238588828901612152565b925050608086013567ffffffffffffffff8111156123a6576123a5611d9b565b5b6123b288828901612207565b9150509295509295909350565b600067ffffffffffffffff8211156123da576123d961203d565b5b602082029050602081019050919050565b60006123fe6123f9846123bf565b61209d565b90508083825260208201905060208402830185811115612421576124206120e4565b5b835b8181101561244a57806124368882611de9565b845260208401935050602081019050612423565b5050509392505050565b600082601f83011261246957612468612038565b5b81356124798482602086016123eb565b91505092915050565b6000806040838503121561249957612498611d96565b5b600083013567ffffffffffffffff8111156124b7576124b6611d9b565b5b6124c385828601612454565b925050602083013567ffffffffffffffff8111156124e4576124e3611d9b565b5b6124f085828601612152565b9150509250929050565b600081519050919050565b600082825260208201905092915050565b6000819050602082019050919050565b61252f81611dfe565b82525050565b60006125418383612526565b60208301905092915050565b6000602082019050919050565b6000612565826124fa565b61256f8185612505565b935061257a83612516565b8060005b838110156125ab5781516125928882612535565b975061259d8361254d565b92505060018101905061257e565b5085935050505092915050565b600060208201905081810360008301526125d2818461255a565b905092915050565b6000806000606084860312156125f3576125f2611d96565b5b600061260186828701611de9565b935050602084013567ffffffffffffffff81111561262257612621611d9b565b5b61262e86828701612152565b925050604084013567ffffffffffffffff81111561264f5761264e611d9b565b5b61265b86828701612152565b9150509250925092565b6000806000806080858703121561267f5761267e611d96565b5b600061268d87828801611de9565b945050602061269e87828801611e1f565b93505060406126af87828801611e1f565b925050606085013567ffffffffffffffff8111156126d0576126cf611d9b565b5b6126dc87828801612207565b91505092959194509250565b6126f181611dc0565b82525050565b600060208201905061270c60008301846126e8565b92915050565b61271b81611f23565b811461272657600080fd5b50565b60008135905061273881612712565b92915050565b6000806040838503121561275557612754611d96565b5b600061276385828601611de9565b925050602061277485828601612729565b9150509250929050565b6000806040838503121561279557612794611d96565b5b60006127a385828601611de9565b92505060206127b485828601611de9565b9150509250929050565b600080600080600060a086880312156127da576127d9611d96565b5b60006127e888828901611de9565b95505060206127f988828901611de9565b945050604061280a88828901611e1f565b935050606061281b88828901611e1f565b925050608086013567ffffffffffffffff81111561283c5761283b611d9b565b5b61284888828901612207565b9150509295509295909350565b60006020828403121561286b5761286a611d96565b5b600061287984828501611de9565b91505092915050565b60008060006060848603121561289b5761289a611d96565b5b60006128a986828701611de9565b93505060206128ba86828701611e1f565b92505060406128cb86828701611e1f565b9150509250925092565b7f4e487b7100000000000000000000000000000000000000000000000000000000600052602260045260246000fd5b6000600282049050600182168061291c57607f821691505b60208210810361292f5761292e6128d5565b5b50919050565b7f4c6f636b3a206578706972656400000000000000000000000000000000000000600082015250565b600061296b600d83611f64565b915061297682612935565b602082019050919050565b6000602082019050818103600083015261299a8161295e565b9050919050565b60006040820190506129b660008301856126e8565b6129c360208301846126e8565b9392505050565b60006040820190506129df6000830185611e74565b6129ec6020830184611e74565b9392505050565b7f4e487b7100000000000000000000000000000000000000000000000000000000600052603260045260246000fd5b600081519050919050565b600082825260208201905092915050565b6000612a4982612a22565b612a538185612a2d565b9350612a63818560208601611f75565b612a6c81611f9f565b840191505092915050565b600060a082019050612a8c60008301886126e8565b612a9960208301876126e8565b612aa66040830186611e74565b612ab36060830185611e74565b8181036080830152612ac58184612a3e565b90509695505050505050565b600081519050612ae081611eca565b92915050565b600060208284031215612afc57612afb611d96565b5b6000612b0a84828501612ad1565b91505092915050565b600060a082019050612b2860008301886126e8565b612b3560208301876126e8565b8181036040830152612b47818661255a565b90508181036060830152612b5b818561255a565b90508181036080830152612b6f8184612a3e565b90509695505050505050565b6000608082019050612b9060008301876126e8565b612b9d6020830186611e74565b612baa6040830185611e74565b612bb76060830184611e74565b95945050505050565b7f4e487b7100000000000000000000000000000000000000000000000000000000600052601160045260246000fd5b6000612bfa82611dfe565b9150612c0583611dfe565b9250828201905080821115612c1d57612c1c612bc0565b5b92915050565b60006040820190508181036000830152612c3d818561255a565b90508181036020830152612c51818461255a565b9050939250505056fea2646970667358221220b68b7c4310315eddcbda704e4491826a75010b56769abf1f9e4f6228ca8f25a564736f6c63430008180033",
  "linkReferences": {},
  "deployedLinkReferences": {}
}